{"abi":[{"type":"constructor","inputs":[{"name":"token","type":"string","internalType":"string"},{"name":"symbol","type":"string","internalType":"string"}],"stateMutability":"nonpayable"},{"type":"function","name":"allowance","inputs":[{"name":"owner","type":"address","internalType":"address"},{"name":"spender","type":"address","internalType":"address"}],"outputs":[{"name":"","type":"uint256","internalType":"uint256"}],"stateMutability":"view"},{"type":"function","name":"approve","inputs":[{"name":"spender","type":"address","internalType":"address"},{"name":"value","type":"uint256","internalType":"uint256"}],"outputs":[{"name":"","type":"bool","internalType":"bool"}],"stateMutability":"nonpayable"},{"type":"function","name":"balanceOf","inputs":[{"name":"account","type":"address","internalType":"address"}],"outputs":[{"name":"","type":"uint256","internalType":"uint256"}],"stateMutability":"view"},{"type":"function","name":"burn","inputs":[{"name":"from","type":"address","internalType":"address"},{"name":"amount","type":"uint256","internalType":"uint256"}],"outputs":[],"stateMutability":"nonpayable"},{"type":"function","name":"decimals","inputs":[],"outputs":[{"name":"","type":"uint8","internalType":"uint8"}],"stateMutability":"view"},{"type":"function","name":"mint","inputs":[{"name":"to","type":"address","internalType":"address"},{"name":"amount","type":"uint256","internalType":"uint256"}],"outputs":[],"stateMutability":"nonpayable"},{"type":"function","name":"name","inputs":[],"outputs":[{"name":"","type":"string","internalType":"string"}],"stateMutability":"view"},{"type":"function","name":"symbol","inputs":[],"outputs":[{"name":"","type":"string","internalType":"string"}],"stateMutability":"view"},{"type":"function","name":"totalSupply","inputs":[],"outputs":[{"name":"","type":"uint256","internalType":"uint256"}],"stateMutability":"view"},{"type":"function","name":"transfer","inputs":[{"name":"to","type":"address","internalType":"address"},{"name":"value","type":"uint256","internalType":"uint256"}],"outputs":[{"name":"","type":"bool","internalType":"bool"}],"stateMutability":"nonpayable"},{"type":"function","name":"transferFrom","inputs":[{"name":"from","type":"address","internalType":"address"},{"name":"to","type":"address","internalType":"address"},{"name":"value","type":"uint256","internalType":"uint256"}],"outputs":[{"name":"","type":"bool","internalType":"bool"}],"stateMutability":"nonpayable"},{"type":"event","name":"Approval","inputs":[{"name":"owner","type":"address","indexed":true,"internalType":"address"},{"name":"spender","type":"address","indexed":true,"internalType":"address"},{"name":"value","type":"uint256","indexed":false,"internalType":"uint256"}],"anonymous":false},{"type":"event","name":"Transfer","inputs":[{"name":"from","type":"address","indexed":true,"internalType":"address"},{"name":"to","type":"address","indexed":true,"internalType":"address"},{"name":"value","type":"uint256","indexed":false,"internalType":"uint256"}],"anonymous":false},{"type":"error","name":"ERC20InsufficientAllowance","inputs":[{"name":"spender","type":"address","internalType":"address"},{"name":"allowance","type":"uint256","internalType":"uint256"},{"name":"needed","type":"uint256","internalType":"uint256"}]},{"type":"error","name":"ERC20InsufficientBalance","inputs":[{"name":"sender","type":"address","internalType":"address"},{"name":"balance","type":"uint256","internalType":"uint256"},{"name":"needed","type":"uint256","internalType":"uint256"}]},{"type":"error","name":"ERC20InvalidApprover","inputs":[{"name":"approver","type":"address","internalType":"address"}]},{"type":"error","name":"ERC20InvalidReceiver","inputs":[{"name":"receiver","type":"address","internalType":"address"}]},{"type":"error","name":"ERC20InvalidSender","inputs":[{"name":"sender","type":"address","internalType":"address"}]},{"type":"error","name":"ERC20InvalidSpender","inputs":[{"name":"spender","type":"address","internalType":"address"}]}],"bytecode":{"object":"0x608060405234801562000010575f80fd5b5060405162000a9938038062000a9983398101604081905262000033916200011b565b818160036200004383826200020d565b5060046200005282826200020d565b5050505050620002d5565b634e487b7160e01b5f52604160045260245ffd5b5f82601f83011262000081575f80fd5b81516001600160401b03808211156200009e576200009e6200005d565b604051601f8301601f19908116603f01168101908282118183101715620000c957620000c96200005d565b81604052838152602092508683858801011115620000e5575f80fd5b5f91505b83821015620001085785820183015181830184015290820190620000e9565b5f93810190920192909252949350505050565b5f80604083850312156200012d575f80fd5b82516001600160401b038082111562000144575f80fd5b620001528683870162000071565b9350602085015191508082111562000168575f80fd5b50620001778582860162000071565b9150509250929050565b600181811c908216806200019657607f821691505b602082108103620001b557634e487b7160e01b5f52602260045260245ffd5b50919050565b601f82111562000208575f81815260208120601f850160051c81016020861015620001e35750805b601f850160051c820191505b818110156200020457828155600101620001ef565b5050505b505050565b81516001600160401b038111156200022957620002296200005d565b62000241816200023a845462000181565b84620001bb565b602080601f83116001811462000277575f84156200025f5750858301515b5f19600386901b1c1916600185901b17855562000204565b5f85815260208120601f198616915b82811015620002a75788860151825594840194600190910190840162000286565b5085821015620002c557878501515f19600388901b60f8161c191681555b5050505050600190811b01905550565b6107b680620002e35f395ff3fe608060405234801561000f575f80fd5b50600436106100a6575f3560e01c806340c10f191161006e57806340c10f191461011f57806370a082311461013457806395d89b411461015c5780639dc29fac14610164578063a9059cbb14610177578063dd62ed3e1461018a575f80fd5b806306fdde03146100aa578063095ea7b3146100c857806318160ddd146100eb57806323b872dd146100fd578063313ce56714610110575b5f80fd5b6100b26101c2565b6040516100bf9190610611565b60405180910390f35b6100db6100d6366004610677565b610252565b60405190151581526020016100bf565b6002545b6040519081526020016100bf565b6100db61010b36600461069f565b61026b565b604051601281526020016100bf565b61013261012d366004610677565b61028e565b005b6100ef6101423660046106d8565b6001600160a01b03165f9081526020819052604090205490565b6100b261029c565b610132610172366004610677565b6102ab565b6100db610185366004610677565b6102b5565b6100ef6101983660046106f8565b6001600160a01b039182165f90815260016020908152604080832093909416825291909152205490565b6060600380546101d190610729565b80601f01602080910402602001604051908101604052809291908181526020018280546101fd90610729565b80156102485780601f1061021f57610100808354040283529160200191610248565b820191905f5260205f20905b81548152906001019060200180831161022b57829003601f168201915b5050505050905090565b5f3361025f8185856102c2565b60019150505b92915050565b5f336102788582856102d4565b610283858585610354565b506001949350505050565b61029882826103b1565b5050565b6060600480546101d190610729565b61029882826103e5565b5f3361025f818585610354565b6102cf8383836001610419565b505050565b6001600160a01b038381165f908152600160209081526040808320938616835292905220545f19811461034e578181101561034057604051637dc7a0d960e11b81526001600160a01b038416600482015260248101829052604481018390526064015b60405180910390fd5b61034e84848484035f610419565b50505050565b6001600160a01b03831661037d57604051634b637e8f60e11b81525f6004820152602401610337565b6001600160a01b0382166103a65760405163ec442f0560e01b81525f6004820152602401610337565b6102cf8383836104eb565b6001600160a01b0382166103da5760405163ec442f0560e01b81525f6004820152602401610337565b6102985f83836104eb565b6001600160a01b03821661040e57604051634b637e8f60e11b81525f6004820152602401610337565b610298825f836104eb565b6001600160a01b0384166104425760405163e602df0560e01b81525f6004820152602401610337565b6001600160a01b03831661046b57604051634a1406b160e11b81525f6004820152602401610337565b6001600160a01b038085165f908152600160209081526040808320938716835292905220829055801561034e57826001600160a01b0316846001600160a01b03167f8c5be1e5ebec7d5bd14f71427d1e84f3dd0314c0f7b2291e5b200ac8c7c3b925846040516104dd91815260200190565b60405180910390a350505050565b6001600160a01b038316610515578060025f82825461050a9190610761565b909155506105859050565b6001600160a01b0383165f90815260208190526040902054818110156105675760405163391434e360e21b81526001600160a01b03851660048201526024810182905260448101839052606401610337565b6001600160a01b0384165f9081526020819052604090209082900390555b6001600160a01b0382166105a1576002805482900390556105bf565b6001600160a01b0382165f9081526020819052604090208054820190555b816001600160a01b0316836001600160a01b03167fddf252ad1be2c89b69c2b068fc378daa952ba7f163c4a11628f55a4df523b3ef8360405161060491815260200190565b60405180910390a3505050565b5f6020808352835180828501525f5b8181101561063c57858101830151858201604001528201610620565b505f604082860101526040601f19601f8301168501019250505092915050565b80356001600160a01b0381168114610672575f80fd5b919050565b5f8060408385031215610688575f80fd5b6106918361065c565b946020939093013593505050565b5f805f606084860312156106b1575f80fd5b6106ba8461065c565b92506106c86020850161065c565b9150604084013590509250925092565b5f602082840312156106e8575f80fd5b6106f18261065c565b9392505050565b5f8060408385031215610709575f80fd5b6107128361065c565b91506107206020840161065c565b90509250929050565b600181811c9082168061073d57607f821691505b60208210810361075b57634e487b7160e01b5f52602260045260245ffd5b50919050565b8082018082111561026557634e487b7160e01b5f52601160045260245ffdfea2646970667358221220e947686e32bd80cde5bcc1198dbb75e4d9dd10d785e6ef5cad413664c17910de64736f6c63430008150033","linkReferences":{}},"methodIdentifiers":{"allowance(address,address)":"dd62ed3e","approve(address,uint256)":"095ea7b3","balanceOf(address)":"70a08231","burn(address,uint256)":"9dc29fac","decimals()":"313ce567","mint(address,uint256)":"40c10f19","name()":"06fdde03","symbol()":"95d89b41","totalSupply()":"18160ddd","transfer(address,uint256)":"a9059cbb","transferFrom(address,address,uint256)":"23b872dd"},"id":44}