{"abi":[{"type":"constructor","inputs":[{"name":"_zksyncDiamondAddress","type":"address","internalType":"contract IZKSyncNexusManagerRouter"},{"name":"_smt","type":"address","internalType":"contract SparseMerkleTree"}],"stateMutability":"nonpayable"},{"type":"function","name":"smt","inputs":[],"outputs":[{"name":"","type":"address","internalType":"contract SparseMerkleTree"}],"stateMutability":"view"},{"type":"function","name":"verify","inputs":[{"name":"_proof","type":"tuple","internalType":"struct StorageProof","components":[{"name":"batchNumber","type":"uint64","internalType":"uint64"},{"name":"account","type":"address","internalType":"address"},{"name":"value","type":"bytes32","internalType":"bytes32"},{"name":"path","type":"bytes32[]","internalType":"bytes32[]"},{"name":"index","type":"uint64","internalType":"uint64"}]},{"name":"_key","type":"uint256","internalType":"uint256"}],"outputs":[{"name":"valid","type":"bool","internalType":"bool"}],"stateMutability":"view"},{"type":"function","name":"zksyncDiamondAddress","inputs":[],"outputs":[{"name":"","type":"address","internalType":"contract IZKSyncNexusManagerRouter"}],"stateMutability":"view"}],"bytecode":{"object":"0x60a060405234801561000f575f80fd5b5060405161052d38038061052d83398101604081905261002e9161006c565b6001600160a01b039182166080525f80546001600160a01b031916919092161790556100a4565b6001600160a01b0381168114610069575f80fd5b50565b5f806040838503121561007d575f80fd5b825161008881610055565b602084015190925061009981610055565b809150509250929050565b60805161046b6100c25f395f818160480152610186015261046b5ff3fe608060405234801561000f575f80fd5b506004361061003f575f3560e01c80630e041660146100435780635e45a06014610087578063ff0b02c214610099575b5f80fd5b61006a7f000000000000000000000000000000000000000000000000000000000000000081565b6040516001600160a01b0390911681526020015b60405180910390f35b5f5461006a906001600160a01b031681565b6100ac6100a736600461028d565b6100bc565b604051901515815260200161007e565b5f805460608085015160408051928301815285835280870151602080850191909152608088015167ffffffffffffffff1684830152870151905163638efe4560e01b815285946001600160a01b03169363638efe45936101209390926004016103a5565b602060405180830381865afa15801561013b573d5f803e3d5ffd5b505050506040513d601f19601f8201168201806040525081019061015f919061041e565b8451604051635916ebc760e11b815267ffffffffffffffff90911660048201529091505f907f00000000000000000000000000000000000000000000000000000000000000006001600160a01b03169063b22dd78e90602401602060405180830381865afa1580156101d3573d5f803e3d5ffd5b505050506040513d601f19601f820116820180604052508101906101f7919061041e565b91909114949350505050565b634e487b7160e01b5f52604160045260245ffd5b60405160a0810167ffffffffffffffff8111828210171561023a5761023a610203565b60405290565b604051601f8201601f1916810167ffffffffffffffff8111828210171561026957610269610203565b604052919050565b803567ffffffffffffffff81168114610288575f80fd5b919050565b5f806040838503121561029e575f80fd5b823567ffffffffffffffff808211156102b5575f80fd5b9084019060a082870312156102c8575f80fd5b6102d0610217565b6102d983610271565b81526020838101356001600160a01b03811681146102f5575f80fd5b8282015260408481013590830152606084013583811115610314575f80fd5b8401601f81018913610324575f80fd5b80358481111561033657610336610203565b8060051b9450610347838601610240565b818152948201830194838101908b871115610360575f80fd5b928401925b8684101561037e57833582529284019290840190610365565b60608601525061039391505060808501610271565b60808301529097950135955050505050565b60a080825284519082018190525f9060209060c0840190828801845b828110156103dd578151845292840192908401906001016103c1565b505086518584015250908501516040808501919091529094015167ffffffffffffffff166060830152506001600160a01b0391909116608090910152919050565b5f6020828403121561042e575f80fd5b505191905056fea2646970667358221220483a7ec4191b40baefe329604732f67b7d7c618d442044374659f39827c7f36764736f6c63430008150033","linkReferences":{}},"methodIdentifiers":{"smt()":"5e45a060","verify((uint64,address,bytes32,bytes32[],uint64),uint256)":"ff0b02c2","zksyncDiamondAddress()":"0e041660"},"id":57}