{"abi":[{"type":"function","name":"addOrUpdateWrapper","inputs":[{"name":"wrapperChainId","type":"bytes32","internalType":"bytes32"},{"name":"wrapper","type":"address","internalType":"contract INexusVerifierWrapper"}],"outputs":[],"stateMutability":"nonpayable"},{"type":"function","name":"checkVerificationOfEncoding","inputs":[{"name":"chainblockNumber","type":"uint256","internalType":"uint256"},{"name":"receipt","type":"tuple","internalType":"struct MailboxMessage","components":[{"name":"nexusAppIDFrom","type":"bytes32","internalType":"bytes32"},{"name":"nexusAppIDTo","type":"bytes32[]","internalType":"bytes32[]"},{"name":"data","type":"bytes","internalType":"bytes"},{"name":"from","type":"address","internalType":"address"},{"name":"to","type":"address[]","internalType":"address[]"},{"name":"nonce","type":"uint256","internalType":"uint256"}]},{"name":"from","type":"bytes32","internalType":"bytes32"},{"name":"receiptHash","type":"bytes32","internalType":"bytes32"},{"name":"proof","type":"bytes","internalType":"bytes"}],"outputs":[],"stateMutability":"nonpayable"},{"type":"function","name":"initialize","inputs":[{"name":"_nexusAppID","type":"bytes32","internalType":"bytes32"}],"outputs":[],"stateMutability":"nonpayable"},{"type":"function","name":"messages","inputs":[{"name":"","type":"bytes32","internalType":"bytes32"}],"outputs":[{"name":"","type":"bool","internalType":"bool"}],"stateMutability":"view"},{"type":"function","name":"nexusAppID","inputs":[],"outputs":[{"name":"","type":"bytes32","internalType":"bytes32"}],"stateMutability":"view"},{"type":"function","name":"owner","inputs":[],"outputs":[{"name":"","type":"address","internalType":"address"}],"stateMutability":"view"},{"type":"function","name":"receiveMessage","inputs":[{"name":"chainblockNumber","type":"uint256","internalType":"uint256"},{"name":"receipt","type":"tuple","internalType":"struct MailboxMessage","components":[{"name":"nexusAppIDFrom","type":"bytes32","internalType":"bytes32"},{"name":"nexusAppIDTo","type":"bytes32[]","internalType":"bytes32[]"},{"name":"data","type":"bytes","internalType":"bytes"},{"name":"from","type":"address","internalType":"address"},{"name":"to","type":"address[]","internalType":"address[]"},{"name":"nonce","type":"uint256","internalType":"uint256"}]},{"name":"proof","type":"bytes","internalType":"bytes"}],"outputs":[],"stateMutability":"nonpayable"},{"type":"function","name":"renounceOwnership","inputs":[],"outputs":[],"stateMutability":"nonpayable"},{"type":"function","name":"searchWrapper","inputs":[{"name":"chainIdTo","type":"bytes32[]","internalType":"bytes32[]"},{"name":"to","type":"address[]","internalType":"address[]"}],"outputs":[{"name":"","type":"address","internalType":"address"}],"stateMutability":"view"},{"type":"function","name":"sendMessage","inputs":[{"name":"nexusAppIDTo","type":"bytes32[]","internalType":"bytes32[]"},{"name":"to","type":"address[]","internalType":"address[]"},{"name":"nonce","type":"uint256","internalType":"uint256"},{"name":"data","type":"bytes","internalType":"bytes"}],"outputs":[],"stateMutability":"nonpayable"},{"type":"function","name":"sortWrapper","inputs":[{"name":"chainIdTo","type":"bytes32[]","internalType":"bytes32[]"},{"name":"to","type":"address[]","internalType":"address[]"},{"name":"left","type":"int256","internalType":"int256"},{"name":"right","type":"int256","internalType":"int256"}],"outputs":[{"name":"","type":"bytes32[]","internalType":"bytes32[]"},{"name":"","type":"address[]","internalType":"address[]"}],"stateMutability":"pure"},{"type":"function","name":"transferOwnership","inputs":[{"name":"newOwner","type":"address","internalType":"address"}],"outputs":[],"stateMutability":"nonpayable"},{"type":"function","name":"updateSendMessages","inputs":[{"name":"key","type":"uint256","internalType":"uint256"},{"name":"value","type":"bytes32","internalType":"bytes32"}],"outputs":[],"stateMutability":"nonpayable"},{"type":"function","name":"verifiedReceipts","inputs":[{"name":"","type":"bytes32","internalType":"bytes32"}],"outputs":[{"name":"nexusAppIDFrom","type":"bytes32","internalType":"bytes32"},{"name":"data","type":"bytes","internalType":"bytes"},{"name":"from","type":"address","internalType":"address"},{"name":"nonce","type":"uint256","internalType":"uint256"}],"stateMutability":"view"},{"type":"function","name":"verifierWrappers","inputs":[{"name":"","type":"bytes32","internalType":"bytes32"}],"outputs":[{"name":"","type":"address","internalType":"contract INexusVerifierWrapper"}],"stateMutability":"view"},{"type":"event","name":"CallbackFailed","inputs":[{"name":"to","type":"address","indexed":true,"internalType":"address"},{"name":"data","type":"bytes","indexed":false,"internalType":"bytes"}],"anonymous":false},{"type":"event","name":"Initialized","inputs":[{"name":"version","type":"uint64","indexed":false,"internalType":"uint64"}],"anonymous":false},{"type":"event","name":"MailboxEvent","inputs":[{"name":"nexusAppIDFrom","type":"bytes32","indexed":true,"internalType":"bytes32"},{"name":"nexusAppIDTo","type":"bytes32[]","indexed":false,"internalType":"bytes32[]"},{"name":"data","type":"bytes","indexed":false,"internalType":"bytes"},{"name":"from","type":"address","indexed":true,"internalType":"address"},{"name":"to","type":"address[]","indexed":false,"internalType":"address[]"},{"name":"nonce","type":"uint256","indexed":false,"internalType":"uint256"},{"name":"receiptHash","type":"bytes32","indexed":false,"internalType":"bytes32"}],"anonymous":false},{"type":"event","name":"OwnershipTransferred","inputs":[{"name":"previousOwner","type":"address","indexed":true,"internalType":"address"},{"name":"newOwner","type":"address","indexed":true,"internalType":"address"}],"anonymous":false},{"type":"error","name":"InvalidInitialization","inputs":[]},{"type":"error","name":"InvalidParameters","inputs":[]},{"type":"error","name":"NotInitializing","inputs":[]},{"type":"error","name":"OwnableInvalidOwner","inputs":[{"name":"owner","type":"address","internalType":"address"}]},{"type":"error","name":"OwnableUnauthorizedAccount","inputs":[{"name":"account","type":"address","internalType":"address"}]},{"type":"error","name":"StateAlreadyUpdated","inputs":[]},{"type":"error","name":"WrapperNotAvailable","inputs":[]}],"bytecode":{"object":"0x608060405234801561000f575f80fd5b50611ef38061001d5f395ff3fe608060405234801561000f575f80fd5b50600436106100f0575f3560e01c80636a55926b116100935780638f97acba116100635780638f97acba146102665780639498bd7114610279578063cb8d653c1461028c578063f2fde38b1461029f575f80fd5b80636a55926b146101f4578063715018a614610217578063799805971461021f5780638da5cb5b14610236575f80fd5b80632679c09b116100ce5780632679c09b146101465780632bbd59ca1461016f5780635e92c0e0146101a1578063649289f5146101e1575f80fd5b8063065d8d93146100f457806314d5fcda14610109578063151086c314610133575b5f80fd5b6101076101023660046111a4565b6102b2565b005b61011c6101173660046112bd565b6103f7565b60405161012a92919061139b565b60405180910390f35b6101076101413660046113c8565b610410565b610107610154366004611439565b505f908152602081905260409020805460ff19166001179055565b61019161017d366004611459565b5f6020819052908152604090205460ff1681565b604051901515815260200161012a565b6101c96101af366004611459565b60016020525f90815260409020546001600160a01b031681565b6040516001600160a01b03909116815260200161012a565b6101c96101ef366004611470565b6106c7565b610207610202366004611459565b6106db565b60405161012a949392919061151c565b610107610792565b61022860035481565b60405190815260200161012a565b7f9016d09d72d40fdae2fd8ceac6b6234c7706214fd39c1cd1e609a0528c199300546001600160a01b03166101c9565b610107610274366004611550565b6107a5565b610107610287366004611459565b6107da565b61010761029a36600461157e565b6108eb565b6101076102ad36600461160f565b610a80565b5f84815260016020526040908190205490516290dbd960e81b81526001600160a01b039091169081906390dbd900906102f5908a90889088908890600401611659565b5f604051808303815f87803b15801561030c575f80fd5b505af115801561031e573d5f803e3d5ffd5b505050508560025f8787604051602001610342929190918252602082015260400190565b6040516020818303038152906040528051906020012081526020019081526020015f205f820151815f01556020820151816001019080519060200190610389929190610eca565b506040820151600282019061039e9082611711565b5060608201516003820180546001600160a01b0319166001600160a01b03909216919091179055608082015180516103e0916004840191602090910190610f13565b5060a0820151816005015590505050505050505050565b60608061040686868686610abd565b5093949293505050565b82355f908152600160205260409020546001600160a01b031680610447576040516354b30cf360e11b815260040160405180910390fd5b5f84604051602001610459919061188d565b60408051601f1981840301815291815281516020928301205f81815260029093529120549091501561049e5760405163165f4e1360e31b815260040160405180910390fd5b6040516290dbd960e81b81526001600160a01b038316906390dbd900906104cf908990859089908990600401611659565b5f604051808303815f87803b1580156104e6575f80fd5b505af11580156104f8573d5f803e3d5ffd5b5050505f8281526002602052604090208691506105158282611b3e565b505f905061059d610529602088018861195f565b808060200260200160405190810160405280939291908181526020018383602002808284375f9201919091525061056792505050608089018961195f565b808060200260200160405190810160405280939291908181526020018383602002808284375f92019190915250610cb792505050565b90506001600160a01b038116156106be575f6001600160a01b03821687356105cb60808a0160608b0161160f565b6105d860408b018b6119b8565b8b60a001356040516024016105f1959493929190611c58565b60408051601f198184030181529181526020820180516001600160e01b0316631b908d5760e01b179052516106269190611c94565b5f604051808303815f865af19150503d805f811461065f576040519150601f19603f3d011682016040523d82523d5f602084013e610664565b606091505b50509050806106bc576001600160a01b0382167f4897072d9871071be999d77763d358428c4fcb1b89c417f416e0854944db8a5b6106a560408a018a6119b8565b6040516106b3929190611caf565b60405180910390a25b505b50505050505050565b5f6106d28383610cb7565b90505b92915050565b600260208190525f9182526040909120805491810180546106fb90611682565b80601f016020809104026020016040519081016040528092919081815260200182805461072790611682565b80156107725780601f1061074957610100808354040283529160200191610772565b820191905f5260205f20905b81548152906001019060200180831161075557829003601f168201915b50505050600383015460059093015491926001600160a01b031691905084565b61079a610d9d565b6107a35f610df8565b565b6107ad610d9d565b5f9182526001602052604090912080546001600160a01b0319166001600160a01b03909216919091179055565b7ff0c57e16840df040f15088dc2f81fe391c3923bec73e23a9662efc9c229c6a008054600160401b810460ff1615906001600160401b03165f8115801561081e5750825b90505f826001600160401b031660011480156108395750303b155b905081158015610847575080155b156108655760405163f92ee8a960e01b815260040160405180910390fd5b845467ffffffffffffffff19166001178555831561088f57845460ff60401b1916600160401b1785555b600386905561089d33610e68565b83156108e357845460ff60401b19168555604051600181527fc7f505b2f371ae2175ee4913f4499e1f2633a7b5936321eed1cdaeb6115181d29060200160405180910390a15b505050505050565b835185511461090d57604051630e52390960e41b815260040160405180910390fd5b61092685855f600189516109219190611cca565b610abd565b5f6040518060c00160405280600354815260200187815260200184848080601f0160208091040260200160405190810160405280939291908181526020018383808284375f92018290525093855250503360208085019190915260408085018b90526060909401899052925193945090926109a49285925001611cdd565b60408051601f1981840301815291815281516020928301205f8181529283905291205490915060ff1615610a165760405162461bcd60e51b815260206004820152601460248201527313595cdcd859d948185b1c9958591e481cd95b9d60621b60448201526064015b60405180910390fd5b5f8181526020819052604090819020805460ff1916600117905560035490513391907f58f2e975d76099ef17c6f5603a4c1a7dcdaa153e47be7e0f516772474a94745890610a6f908b90899089908d908d908a90611d9c565b60405180910390a350505050505050565b610a88610d9d565b6001600160a01b038116610ab157604051631e4fbdf760e01b81525f6004820152602401610a0d565b610aba81610df8565b50565b8181808203610acd575050610cb1565b5f866002610adb8787611deb565b610ae59190611e11565b610aef9087611e49565b81518110610aff57610aff611e70565b602002602001015190505b818313610c89575b80878481518110610b2557610b25611e70565b60200260200101511015610b455782610b3d81611e84565b935050610b12565b868281518110610b5757610b57611e70565b6020026020010151811015610b785781610b7081611ea2565b925050610b45565b818313610c8457868281518110610b9157610b91611e70565b6020026020010151878481518110610bab57610bab611e70565b6020026020010151888581518110610bc557610bc5611e70565b60200260200101898581518110610bde57610bde611e70565b6020026020010182815250828152505050858281518110610c0157610c01611e70565b6020026020010151868481518110610c1b57610c1b611e70565b6020026020010151878581518110610c3557610c35611e70565b60200260200101888581518110610c4e57610c4e611e70565b6001600160a01b0393841660209182029290920101529116905282610c7281611e84565b9350508180610c8090611ea2565b9250505b610b0a565b81851215610c9d57610c9d87878785610abd565b838312156106be576106be87878587610abd565b50505050565b5f82515f03610cc757505f6106d5565b5f8060018551610cd79190611cca565b90505b808213610d93575f6002610cee8484611deb565b610cf89190611e11565b610d029084611e49565b9050600354868281518110610d1957610d19611e70565b602002602001015103610d4a57848181518110610d3857610d38611e70565b602002602001015193505050506106d5565b600354868281518110610d5f57610d5f611e70565b60200260200101511015610d7f57610d78816001611e49565b9250610d8d565b610d8a600182611deb565b91505b50610cda565b505f949350505050565b33610dcf7f9016d09d72d40fdae2fd8ceac6b6234c7706214fd39c1cd1e609a0528c199300546001600160a01b031690565b6001600160a01b0316146107a35760405163118cdaa760e01b8152336004820152602401610a0d565b7f9016d09d72d40fdae2fd8ceac6b6234c7706214fd39c1cd1e609a0528c19930080546001600160a01b031981166001600160a01b03848116918217845560405192169182907f8be0079c531659141344cd1fd0a4f28419497f9722a3daafe3b4186f6b6457e0905f90a3505050565b610e70610e79565b610aba81610ec2565b7ff0c57e16840df040f15088dc2f81fe391c3923bec73e23a9662efc9c229c6a0054600160401b900460ff166107a357604051631afcd79f60e31b815260040160405180910390fd5b610a88610e79565b828054828255905f5260205f20908101928215610f03579160200282015b82811115610f03578251825591602001919060010190610ee8565b50610f0f929150610f66565b5090565b828054828255905f5260205f20908101928215610f03579160200282015b82811115610f0357825182546001600160a01b0319166001600160a01b03909116178255602090920191600190910190610f31565b5b80821115610f0f575f8155600101610f67565b634e487b7160e01b5f52604160045260245ffd5b60405160c081016001600160401b0381118282101715610fb057610fb0610f7a565b60405290565b604051601f8201601f191681016001600160401b0381118282101715610fde57610fde610f7a565b604052919050565b5f6001600160401b03821115610ffe57610ffe610f7a565b5060051b60200190565b5f82601f830112611017575f80fd5b8135602061102c61102783610fe6565b610fb6565b82815260059290921b8401810191818101908684111561104a575f80fd5b8286015b84811015611065578035835291830191830161104e565b509695505050505050565b5f82601f83011261107f575f80fd5b81356001600160401b0381111561109857611098610f7a565b6110ab601f8201601f1916602001610fb6565b8181528460208386010111156110bf575f80fd5b816020850160208301375f918101602001919091529392505050565b6001600160a01b0381168114610aba575f80fd5b80356110fa816110db565b919050565b5f82601f83011261110e575f80fd5b8135602061111e61102783610fe6565b82815260059290921b8401810191818101908684111561113c575f80fd5b8286015b84811015611065578035611153816110db565b8352918301918301611140565b5f8083601f840112611170575f80fd5b5081356001600160401b03811115611186575f80fd5b60208301915083602082850101111561119d575f80fd5b9250929050565b5f805f805f8060a087890312156111b9575f80fd5b8635955060208701356001600160401b03808211156111d6575f80fd5b9088019060c0828b0312156111e9575f80fd5b6111f1610f8e565b82358152602083013582811115611206575f80fd5b6112128c828601611008565b602083015250604083013582811115611229575f80fd5b6112358c828601611070565b604083015250611247606084016110ef565b606082015260808301358281111561125d575f80fd5b6112698c8286016110ff565b60808301525060a083013560a0820152809750506040890135955060608901359450608089013591508082111561129e575f80fd5b506112ab89828a01611160565b979a9699509497509295939492505050565b5f805f80608085870312156112d0575f80fd5b84356001600160401b03808211156112e6575f80fd5b6112f288838901611008565b95506020870135915080821115611307575f80fd5b50611314878288016110ff565b949794965050505060408301359260600135919050565b5f8151808452602080850194508084015f5b838110156113595781518752958201959082019060010161133d565b509495945050505050565b5f8151808452602080850194508084015f5b838110156113595781516001600160a01b031687529582019590820190600101611376565b604081525f6113ad604083018561132b565b82810360208401526113bf8185611364565b95945050505050565b5f805f80606085870312156113db575f80fd5b8435935060208501356001600160401b03808211156113f8575f80fd5b9086019060c0828903121561140b575f80fd5b90935060408601359080821115611420575f80fd5b5061142d87828801611160565b95989497509550505050565b5f806040838503121561144a575f80fd5b50508035926020909101359150565b5f60208284031215611469575f80fd5b5035919050565b5f8060408385031215611481575f80fd5b82356001600160401b0380821115611497575f80fd5b6114a386838701611008565b935060208501359150808211156114b8575f80fd5b506114c5858286016110ff565b9150509250929050565b5f5b838110156114e95781810151838201526020016114d1565b50505f910152565b5f81518084526115088160208601602086016114cf565b601f01601f19169290920160200192915050565b848152608060208201525f61153460808301866114f1565b6001600160a01b03949094166040830152506060015292915050565b5f8060408385031215611561575f80fd5b823591506020830135611573816110db565b809150509250929050565b5f805f805f60808688031215611592575f80fd5b85356001600160401b03808211156115a8575f80fd5b6115b489838a01611008565b965060208801359150808211156115c9575f80fd5b6115d589838a016110ff565b95506040880135945060608801359150808211156115f1575f80fd5b506115fe88828901611160565b969995985093965092949392505050565b5f6020828403121561161f575f80fd5b813561162a816110db565b9392505050565b81835281816020850137505f828201602090810191909152601f909101601f19169091010190565b848152836020820152606060408201525f611678606083018486611631565b9695505050505050565b600181811c9082168061169657607f821691505b6020821081036116b457634e487b7160e01b5f52602260045260245ffd5b50919050565b5b818110156116ce575f81556001016116bb565b5050565b601f82111561170c57805f5260205f20601f840160051c810160208510156116f75750805b611709601f850160051c8301826116ba565b50505b505050565b81516001600160401b0381111561172a5761172a610f7a565b61173e816117388454611682565b846116d2565b602080601f831160018114611771575f841561175a5750858301515b5f19600386901b1c1916600185901b1785556108e3565b5f85815260208120601f198616915b8281101561179f57888601518255948401946001909101908401611780565b50858210156117bc57878501515f19600388901b60f8161c191681555b5050505050600190811b01905550565b5f808335601e198436030181126117e1575f80fd5b83016020810192503590506001600160401b038111156117ff575f80fd5b8060051b360382131561119d575f80fd5b5f808335601e19843603018112611825575f80fd5b83016020810192503590506001600160401b03811115611843575f80fd5b80360382131561119d575f80fd5b8183525f60208085019450825f5b85811015611359578135611872816110db565b6001600160a01b03168752958201959082019060010161185f565b60208152813560208201525f6118a660208401846117cc565b60c0604085015260e084018190526101006001600160fb1b038211156118ca575f80fd5b8160051b915081838287013781850192506118e86040870187611810565b925060e08685030160608701526119028285018483611631565b9350505050611913606085016110ef565b6001600160a01b03811660808501525061193060808501856117cc565b848303601f190160a0860152611947838284611851565b9250505060a084013560c08401528091505092915050565b5f808335601e19843603018112611974575f80fd5b8301803591506001600160401b0382111561198d575f80fd5b6020019150600581901b360382131561119d575f80fd5b634e487b7160e01b5f52601160045260245ffd5b5f808335601e198436030181126119cd575f80fd5b8301803591506001600160401b038211156119e6575f80fd5b60200191503681900382131561119d575f80fd5b6001600160401b03831115611a1157611a11610f7a565b611a2583611a1f8354611682565b836116d2565b5f601f841160018114611a56575f8515611a3f5750838201355b5f19600387901b1c1916600186901b178355611709565b5f83815260209020601f19861690835b82811015611a865786850135825560209485019460019092019101611a66565b5086821015611aa2575f1960f88860031b161c19848701351681555b505060018560011b0183555050505050565b5f81356106d5816110db565b6001600160401b03831115611ad757611ad7610f7a565b600160401b831115611aeb57611aeb610f7a565b805483825580841015611b0f57815f5260205f20611b0d8282018683016116ba565b505b5081815f526020805f205f5b868110156106be578335611b2e816110db565b8282015592820192600101611b1b565b8135815560018082016020611b558186018661195f565b6001600160401b03811115611b6c57611b6c610f7a565b600160401b811115611b8057611b80610f7a565b835481855580821015611bb3575f8581528481208381019083015b80821015611baf5782825590880190611b9b565b5050505b505f93845260208420935b81811015611bd757823585820155918301918501611bbe565b505050505050611bea60408301836119b8565b611bf88183600286016119fa565b5050611c2d611c0960608401611ab4565b6003830180546001600160a01b0319166001600160a01b0392909216919091179055565b611c3a608083018361195f565b611c48818360048601611ac0565b505060a082013560058201555050565b8581526001600160a01b03851660208201526080604082018190525f90611c829083018587611631565b90508260608301529695505050505050565b5f8251611ca58184602087016114cf565b9190910192915050565b602081525f611cc2602083018486611631565b949350505050565b818103818111156106d5576106d56119a4565b60208082528251828201528281015160c06040840152805160e084018190525f929182019083906101008601905b80831015611d2b5783518252928401926001929092019190840190611d0b565b5060408701519350601f19925082868203016060870152611d4c81856114f1565b935050506060850151611d6a60808601826001600160a01b03169052565b506080850151818584030160a0860152611d848382611364565b9250505060a084015160c08401528091505092915050565b60a081525f611dae60a083018961132b565b8281036020840152611dc181888a611631565b90508281036040840152611dd58187611364565b6060840195909552505060800152949350505050565b8181035f831280158383131683831282161715611e0a57611e0a6119a4565b5092915050565b5f82611e2b57634e487b7160e01b5f52601260045260245ffd5b600160ff1b82145f1984141615611e4457611e446119a4565b500590565b8082018281125f831280158216821582161715611e6857611e686119a4565b505092915050565b634e487b7160e01b5f52603260045260245ffd5b5f6001600160ff1b018201611e9b57611e9b6119a4565b5060010190565b5f600160ff1b8201611eb657611eb66119a4565b505f19019056fea264697066735822122018f721027a99121cf77f40b81b76d184d889a9330f24ba011104f960e231d16464736f6c63430008150033","linkReferences":{}},"methodIdentifiers":{"addOrUpdateWrapper(bytes32,address)":"8f97acba","checkVerificationOfEncoding(uint256,(bytes32,bytes32[],bytes,address,address[],uint256),bytes32,bytes32,bytes)":"065d8d93","initialize(bytes32)":"9498bd71","messages(bytes32)":"2bbd59ca","nexusAppID()":"79980597","owner()":"8da5cb5b","receiveMessage(uint256,(bytes32,bytes32[],bytes,address,address[],uint256),bytes)":"151086c3","renounceOwnership()":"715018a6","searchWrapper(bytes32[],address[])":"649289f5","sendMessage(bytes32[],address[],uint256,bytes)":"cb8d653c","sortWrapper(bytes32[],address[],int256,int256)":"14d5fcda","transferOwnership(address)":"f2fde38b","updateSendMessages(uint256,bytes32)":"2679c09b","verifiedReceipts(bytes32)":"6a55926b","verifierWrappers(bytes32)":"5e92c0e0"},"id":53}