{"abi":[{"type":"constructor","inputs":[{"name":"_nexusStateManager","type":"address","internalType":"contract INexusProofManager"}],"stateMutability":"nonpayable"},{"type":"function","name":"getStorageRoot","inputs":[{"name":"nexusAppID","type":"bytes32","internalType":"bytes32"},{"name":"chainBlockNumber","type":"uint256","internalType":"uint256"},{"name":"account","type":"address","internalType":"address"},{"name":"accountTrieProof","type":"bytes","internalType":"bytes"}],"outputs":[{"name":"","type":"bytes32","internalType":"bytes32"}],"stateMutability":"view"},{"type":"function","name":"verifyAccount","inputs":[{"name":"latestState","type":"bytes32","internalType":"bytes32"},{"name":"accountTrieProof","type":"bytes","internalType":"bytes"},{"name":"account","type":"address","internalType":"address"}],"outputs":[{"name":"nonce","type":"uint256","internalType":"uint256"},{"name":"accountBalance","type":"uint256","internalType":"uint256"},{"name":"codeHash","type":"bytes32","internalType":"bytes32"},{"name":"storageRoot","type":"bytes32","internalType":"bytes32"}],"stateMutability":"pure"},{"type":"function","name":"verifyStorage","inputs":[{"name":"storageRoot","type":"bytes32","internalType":"bytes32"},{"name":"slot","type":"bytes32","internalType":"bytes32"},{"name":"storageSlotTrieProof","type":"bytes","internalType":"bytes"}],"outputs":[{"name":"slotValue","type":"bytes32","internalType":"bytes32"}],"stateMutability":"pure"}],"bytecode":{"object":"0x60a060405234801561000f575f80fd5b5060405161195338038061195383398101604081905261002e9161003f565b6001600160a01b031660805261006c565b5f6020828403121561004f575f80fd5b81516001600160a01b0381168114610065575f80fd5b9392505050565b6080516118c861008b5f395f81816101a5015261027f01526118c85ff3fe608060405234801561000f575f80fd5b506004361061003f575f3560e01c80636f7096dc146100435780637f1b8c73146100695780639a089eb61461009c575b5f80fd5b610056610051366004611661565b6100af565b6040519081526020015b60405180910390f35b61007c6100773660046116c8565b61011e565b604080519485526020850193909352918301526060820152608001610060565b6100566100aa36600461171b565b61018d565b5f80836040516020016100c491815260200190565b60405160208183030381529060405290505f6100e1828588610343565b6040805180820182525f80825260209182015281518083019092528251825280830190820152909250610114915061036a565b9695505050505050565b5f805f805f8560405160200161014c919060609190911b6bffffffffffffffffffffffff1916815260140190565b60405160208183030381529060405290505f8061016a838a8c610343565b915091506101788282610466565b929d919c50919a509098509650505050505050565b604051630fec317160e01b8152600481018690525f907f00000000000000000000000000000000000000000000000000000000000000006001600160a01b031690630fec317190602401602060405180830381865afa1580156101f2573d5f803e3d5ffd5b505050506040513d601f19601f8201168201806040525081019061021691906117a7565b8511156102615760405162461bcd60e51b815260206004820152601460248201527324b73b30b634b210313637b1b590373ab6b132b960611b60448201526064015b60405180910390fd5b604051626b43d560e41b815260048101879052602481018690525f907f00000000000000000000000000000000000000000000000000000000000000006001600160a01b0316906306b43d5090604401602060405180830381865afa1580156102cc573d5f803e3d5ffd5b505050506040513d601f19601f820116820180604052508101906102f091906117a7565b90505f6103348286868080601f0160208091040260200160405190810160405280939291908181526020018383808284375f920191909152508b925061011e915050565b9b9a5050505050505050505050565b5f60605f6103508661058a565b905061035d8186866105bc565b9250925050935093915050565b5f6021825f015111156103bf5760405162461bcd60e51b815260206004820152601a60248201527f496e76616c696420524c5020627974657333322076616c75652e0000000000006044820152606401610258565b5f805f6103cb85610691565b919450925090505f8160018111156103e5576103e56117be565b146104325760405162461bcd60e51b815260206004820152601a60248201527f496e76616c696420524c5020627974657333322076616c75652e0000000000006044820152606401610258565b5f83866020015161044391906117e6565b805190915060208410156101145760208490036101000a90049695505050505050565b5f805f80856104bf57505f92508291507f56e81f171bcc55a6ff8345e692c0f86e5b48e01b996cadc001622fb5e363b42190507fc5d2460186f7233c927e7db2dcc703c0e500b653ca82273b7bfad8045d85a470610581565b5f6104f86104f3876040805180820182525f8082526020918201528151808301909252825182529182019181019190915290565b61098b565b905061051f815f60ff1681518110610512576105126117f9565b6020026020010151610b71565b945061053a81600160ff1681518110610512576105126117f9565b935061056281600360ff1681518110610555576105556117f9565b602002602001015161036a565b915061057d81600260ff1681518110610555576105556117f9565b9250505b92959194509250565b606081805190602001206040516020016105a691815260200190565b6040516020818303038152906040529050919050565b5f60605f6105c985610b81565b90505f805f6105d9848a89610c78565b815192955090935091501580806105ed5750815b6106395760405162461bcd60e51b815260206004820152601a60248201527f50726f76696465642070726f6f6620697320696e76616c69642e0000000000006044820152606401610258565b5f816106535760405180602001604052805f81525061067f565b61067f8661066260018861180d565b81518110610672576106726117f9565b6020026020010151611087565b919b919a509098505050505050505050565b5f805f80845f0151116106e65760405162461bcd60e51b815260206004820152601860248201527f524c50206974656d2063616e6e6f74206265206e756c6c2e00000000000000006044820152606401610258565b602084015180515f1a607f8111610708575f60015f9450945094505050610984565b60b78111610777578551607f1982019081106107665760405162461bcd60e51b815260206004820152601960248201527f496e76616c696420524c502073686f727420737472696e672e000000000000006044820152606401610258565b6001955093505f9250610984915050565b60bf811161084e57855160b61982019081106107d55760405162461bcd60e51b815260206004820152601f60248201527f496e76616c696420524c50206c6f6e6720737472696e67206c656e6774682e006044820152606401610258565b5f816020036101000a6001850151049050808201885f01511161083a5760405162461bcd60e51b815260206004820152601860248201527f496e76616c696420524c50206c6f6e6720737472696e672e00000000000000006044820152606401610258565b6001909101955093505f9250610984915050565b60f781116108bd57855160bf1982019081106108ac5760405162461bcd60e51b815260206004820152601760248201527f496e76616c696420524c502073686f7274206c6973742e0000000000000000006044820152606401610258565b600195509350849250610984915050565b855160f61982019081106109135760405162461bcd60e51b815260206004820152601d60248201527f496e76616c696420524c50206c6f6e67206c697374206c656e6774682e0000006044820152606401610258565b5f816020036101000a6001850151049050808201885f0151116109715760405162461bcd60e51b815260206004820152601660248201527524b73b30b634b210292628103637b733903634b9ba1760511b6044820152606401610258565b6001918201965094509250610984915050565b9193909250565b60605f8061099884610691565b919350909150600190508160018111156109b4576109b46117be565b14610a015760405162461bcd60e51b815260206004820152601760248201527f496e76616c696420524c50206c6973742076616c75652e0000000000000000006044820152606401610258565b60408051602080825261042082019092525f91816020015b604080518082019091525f8082526020820152815260200190600190039081610a195790505090505f835b8651811015610b665760208210610ab05760405162461bcd60e51b815260206004820152602a60248201527f50726f766964656420524c50206c6973742065786365656473206d6178206c6960448201526939ba103632b733ba341760b11b6064820152608401610258565b5f80610aeb6040518060400160405280858c5f0151610acf919061180d565b8152602001858c60200151610ae491906117e6565b9052610691565b509150915060405180604001604052808383610b0791906117e6565b8152602001848b60200151610b1c91906117e6565b815250858581518110610b3157610b316117f9565b6020908102919091010152610b476001856117e6565b9350610b5381836117e6565b610b5d90846117e6565b92505050610a44565b508152949350505050565b5f610b7b8261036a565b92915050565b60605f610b8d836110b1565b90505f815167ffffffffffffffff811115610baa57610baa6115c4565b604051908082528060200260200182016040528015610bef57816020015b6040805180820190915260608082526020820152815260200190600190039081610bc85790505b5090505f5b8251811015610c70575f610c20848381518110610c1357610c136117f9565b60200260200101516110e3565b90506040518060400160405280828152602001610c3c836110b1565b815250838381518110610c5157610c516117f9565b6020026020010181905250508080610c6890611820565b915050610bf4565b509392505050565b5f6060818080610c8787611170565b90505f8690505f80610cac604051806040016040528060608152602001606081525090565b5f5b8c5181101561105f578c8181518110610cc957610cc96117f9565b602002602001015191508284610cdf91906117e6565b9350610cec6001886117e6565b9650835f03610d4657815180516020909101208514610d415760405162461bcd60e51b8152602060048201526011602482015270092dcecc2d8d2c840e4dedee840d0c2e6d607b1b6044820152606401610258565b610e02565b815151602011610da857815180516020909101208514610d415760405162461bcd60e51b815260206004820152601b60248201527f496e76616c6964206c6172676520696e7465726e616c206861736800000000006044820152606401610258565b84610db5835f0151611288565b14610e025760405162461bcd60e51b815260206004820152601a60248201527f496e76616c696420696e7465726e616c206e6f646520686173680000000000006044820152606401610258565b610e0e601060016117e6565b82602001515103610e7e578551841461105f575f868581518110610e3457610e346117f9565b602001015160f81c60f81b60f81c90505f83602001518260ff1681518110610e5e57610e5e6117f9565b60200260200101519050610e71816112af565b965060019450505061104d565b600282602001515103611005575f610e95836112ea565b90505f815f81518110610eaa57610eaa6117f9565b016020015160f81c90505f610ec060028361184c565b610ecb906002611879565b90505f610edb848360ff1661130d565b90505f610ee88b8a61130d565b90505f610ef5838361133b565b905060ff851660021480610f0c575060ff85166003145b15610f4657808351148015610f215750808251145b15610f3357610f30818b6117e6565b99505b50600160ff1b995061105f945050505050565b60ff85161580610f59575060ff85166001145b15610fae57805f03610f785750600160ff1b995061105f945050505050565b610f9f8860200151600181518110610f9257610f926117f9565b60200260200101516112af565b9a50975061104d945050505050565b60405162461bcd60e51b815260206004820152602660248201527f52656365697665642061206e6f6465207769746820616e20756e6b6e6f776e206044820152650e0e4caccd2f60d31b6064820152608401610258565b60405162461bcd60e51b815260206004820152601d60248201527f526563656976656420616e20756e706172736561626c65206e6f64652e0000006044820152606401610258565b8061105781611820565b915050610cae565b50600160ff1b841486611072878661130d565b909e909d50909b509950505050505050505050565b60208101518051606091610b7b916110a19060019061180d565b81518110610c1357610c136117f9565b6040805180820182525f80825260209182015281518083019092528251825280830190820152606090610b7b9061098b565b60605f805f6110f185610691565b919450925090505f81600181111561110b5761110b6117be565b146111585760405162461bcd60e51b815260206004820152601860248201527f496e76616c696420524c502062797465732076616c75652e00000000000000006044820152606401610258565b611167856020015184846113b6565b95945050505050565b60605f825160020267ffffffffffffffff811115611190576111906115c4565b6040519080825280601f01601f1916602001820160405280156111ba576020820181803683370190505b5090505f5b83518110156112815760048482815181106111dc576111dc6117f9565b602001015160f81c60f81b6001600160f81b031916901c828260020281518110611208576112086117f9565b60200101906001600160f81b03191690815f1a9053506010848281518110611232576112326117f9565b016020015160f81c8161124757611247611838565b0660f81b828260020260010181518110611263576112636117f9565b60200101906001600160f81b03191690815f1a9053506001016111bf565b5092915050565b5f60208251101561129b57506020015190565b81806020019051810190610b7b91906117a7565b5f60606020835f015110156112ce576112c783611464565b90506112da565b6112d7836110e3565b90505b6112e381611288565b9392505050565b6060610b7b61130883602001515f81518110610c1357610c136117f9565b611170565b6060818351035f0361132d575060408051602081019091525f8152610b7b565b6112e383838486510361146f565b5f805b80845111801561134e5750808351115b801561139f5750828181518110611367576113676117f9565b602001015160f81c60f81b6001600160f81b03191684828151811061138e5761138e6117f9565b01602001516001600160f81b031916145b156112e357806113ae81611820565b91505061133e565b60605f8267ffffffffffffffff8111156113d2576113d26115c4565b6040519080825280601f01601f1916602001820160405280156113fc576020820181803683370190505b50905080515f0361140e5790506112e3565b848401602082015f5b60208604811015611438578251825260209283019290910190600101611417565b505f6001602087066020036101000a039050808251168119845116178252839450505050509392505050565b6060610b7b826115b0565b60608182601f0110156114b55760405162461bcd60e51b815260206004820152600e60248201526d736c6963655f6f766572666c6f7760901b6044820152606401610258565b8282840110156114f85760405162461bcd60e51b815260206004820152600e60248201526d736c6963655f6f766572666c6f7760901b6044820152606401610258565b8183018451101561153f5760405162461bcd60e51b8152602060048201526011602482015270736c6963655f6f75744f66426f756e647360781b6044820152606401610258565b60608215801561155d5760405191505f8252602082016040526115a7565b6040519150601f8416801560200281840101858101878315602002848b0101015b8183101561159657805183526020928301920161157e565b5050858452601f01601f1916604052505b50949350505050565b6060610b7b82602001515f845f01516113b6565b634e487b7160e01b5f52604160045260245ffd5b5f82601f8301126115e7575f80fd5b813567ffffffffffffffff80821115611602576116026115c4565b604051601f8301601f19908116603f0116810190828211818310171561162a5761162a6115c4565b81604052838152866020858801011115611642575f80fd5b836020870160208301375f602085830101528094505050505092915050565b5f805f60608486031215611673575f80fd5b8335925060208401359150604084013567ffffffffffffffff811115611697575f80fd5b6116a3868287016115d8565b9150509250925092565b80356001600160a01b03811681146116c3575f80fd5b919050565b5f805f606084860312156116da575f80fd5b83359250602084013567ffffffffffffffff8111156116f7575f80fd5b611703868287016115d8565b925050611712604085016116ad565b90509250925092565b5f805f805f6080868803121561172f575f80fd5b8535945060208601359350611746604087016116ad565b9250606086013567ffffffffffffffff80821115611762575f80fd5b818801915088601f830112611775575f80fd5b813581811115611783575f80fd5b896020828501011115611794575f80fd5b9699959850939650602001949392505050565b5f602082840312156117b7575f80fd5b5051919050565b634e487b7160e01b5f52602160045260245ffd5b634e487b7160e01b5f52601160045260245ffd5b80820180821115610b7b57610b7b6117d2565b634e487b7160e01b5f52603260045260245ffd5b81810381811115610b7b57610b7b6117d2565b5f60018201611831576118316117d2565b5060010190565b634e487b7160e01b5f52601260045260245ffd5b5f60ff83168061186a57634e487b7160e01b5f52601260045260245ffd5b8060ff84160691505092915050565b60ff8281168282160390811115610b7b57610b7b6117d256fea26469706673582212205ddbf3a0eeaf767d508ae3ec5be40b60e4120c42701ae55fb2f57fd34a3501a664736f6c63430008150033","linkReferences":{}},"methodIdentifiers":{"getStorageRoot(bytes32,uint256,address,bytes)":"9a089eb6","verifyAccount(bytes32,bytes,address)":"7f1b8c73","verifyStorage(bytes32,bytes32,bytes)":"6f7096dc"},"id":47}